{
  "_format": "hh-sol-artifact-1",
  "contractName": "Tornado",
  "sourceName": "contracts/Tornado.sol",
  "abi": [
    {
      "inputs": [
        {
          "internalType": "address",
          "name": "_hasher",
          "type": "address"
        },
        {
          "internalType": "address",
          "name": "_verifier",
          "type": "address"
        }
      ],
      "stateMutability": "nonpayable",
      "type": "constructor"
    },
    {
      "anonymous": false,
      "inputs": [
        {
          "indexed": false,
          "internalType": "uint256",
          "name": "root",
          "type": "uint256"
        },
        {
          "indexed": false,
          "internalType": "uint256[10]",
          "name": "hashPairings",
          "type": "uint256[10]"
        },
        {
          "indexed": false,
          "internalType": "uint8[10]",
          "name": "pairDirection",
          "type": "uint8[10]"
        }
      ],
      "name": "Deposit",
      "type": "event"
    },
    {
      "anonymous": false,
      "inputs": [
        {
          "indexed": false,
          "internalType": "address",
          "name": "to",
          "type": "address"
        },
        {
          "indexed": false,
          "internalType": "uint256",
          "name": "nullifierHash",
          "type": "uint256"
        }
      ],
      "name": "Withdrawal",
      "type": "event"
    },
    {
      "inputs": [
        {
          "internalType": "uint256",
          "name": "",
          "type": "uint256"
        }
      ],
      "name": "commitments",
      "outputs": [
        {
          "internalType": "bool",
          "name": "",
          "type": "bool"
        }
      ],
      "stateMutability": "view",
      "type": "function"
    },
    {
      "inputs": [],
      "name": "denomination",
      "outputs": [
        {
          "internalType": "uint256",
          "name": "",
          "type": "uint256"
        }
      ],
      "stateMutability": "view",
      "type": "function"
    },
    {
      "inputs": [
        {
          "internalType": "uint256",
          "name": "_commitment",
          "type": "uint256"
        }
      ],
      "name": "deposit",
      "outputs": [],
      "stateMutability": "payable",
      "type": "function"
    },
    {
      "inputs": [],
      "name": "nextLeafIdx",
      "outputs": [
        {
          "internalType": "uint256",
          "name": "",
          "type": "uint256"
        }
      ],
      "stateMutability": "view",
      "type": "function"
    },
    {
      "inputs": [
        {
          "internalType": "uint256",
          "name": "",
          "type": "uint256"
        }
      ],
      "name": "nullifierHashes",
      "outputs": [
        {
          "internalType": "bool",
          "name": "",
          "type": "bool"
        }
      ],
      "stateMutability": "view",
      "type": "function"
    },
    {
      "inputs": [
        {
          "internalType": "uint256",
          "name": "",
          "type": "uint256"
        }
      ],
      "name": "roots",
      "outputs": [
        {
          "internalType": "bool",
          "name": "",
          "type": "bool"
        }
      ],
      "stateMutability": "view",
      "type": "function"
    },
    {
      "inputs": [],
      "name": "treeLevel",
      "outputs": [
        {
          "internalType": "uint8",
          "name": "",
          "type": "uint8"
        }
      ],
      "stateMutability": "view",
      "type": "function"
    },
    {
      "inputs": [
        {
          "internalType": "uint256[2]",
          "name": "a",
          "type": "uint256[2]"
        },
        {
          "internalType": "uint256[2][2]",
          "name": "b",
          "type": "uint256[2][2]"
        },
        {
          "internalType": "uint256[2]",
          "name": "c",
          "type": "uint256[2]"
        },
        {
          "internalType": "uint256[2]",
          "name": "input",
          "type": "uint256[2]"
        }
      ],
      "name": "withdraw",
      "outputs": [],
      "stateMutability": "payable",
      "type": "function"
    }
  ],
  "bytecode": "0x6080604052600a600260146101000a81548160ff021916908360ff160217905550670de0b6b3a764000060035560006004556040518061014001604052807f33418cd1669b4e7f4bf473ec2db9a489b3d6f9f11b91d0b3b6004432ab53d60b81526020017f350ffb7c45ccf8940c163b192252495b614def57272b6f8d9a53a5b3e44ef8bd81526020017fc8acb7af851baf91a82b1ad46b01ac506ce80387170890dea377d21e8520258481526020017f5171d273154b2764aa5903210e16bd1899b18648d1358d41887a113227e9acc581526020017f986c06cb04d613f57cf7a1da410e0f22c794e1ec1ae125898cfc9662a5e5be5981526020017f6eb9a05106eff3031621027680204b2e9326b0e5191bd62f3cd7bf7f6d94d02781526020017fa1cbc8691493398c061f547b4882edbb6a38ce1730c8a2605e9d8138d4ad122681526020017f850aa72f3d8bc65181e9c29d76f7614e2f939ade9442abac29fc8a0329deeffd81526020017fe9c6f678752dbfc89028bf8b9b1cce608b34b742b75fbae878ec2c6ae803dc1e81526020017fa9e22c2e1f4531bc4389032bb472b97c25a7298d27ba4fefd75439a1be46f77f815250600990600a620001c99291906200028f565b50348015620001d757600080fd5b5060405162001e2a38038062001e2a8339818101604052810190620001fd91906200035d565b600160008190555081600260006101000a81548173ffffffffffffffffffffffffffffffffffffffff021916908373ffffffffffffffffffffffffffffffffffffffff16021790555080600160006101000a81548173ffffffffffffffffffffffffffffffffffffffff021916908373ffffffffffffffffffffffffffffffffffffffff1602179055505050620003a4565b82600a8101928215620002c1579160200282015b82811115620002c0578251825591602001919060010190620002a3565b5b509050620002d09190620002d4565b5090565b5b80821115620002ef576000816000905550600101620002d5565b5090565b600080fd5b600073ffffffffffffffffffffffffffffffffffffffff82169050919050565b60006200032582620002f8565b9050919050565b620003378162000318565b81146200034357600080fd5b50565b60008151905062000357816200032c565b92915050565b60008060408385031215620003775762000376620002f3565b5b6000620003878582860162000346565b92505060206200039a8582860162000346565b9150509250929050565b611a7680620003b46000396000f3fe60806040526004361061007b5760003560e01c8063b6b55f251161004e578063b6b55f2514610150578063b8e795641461016c578063c2b40ae414610197578063c78784d7146101d45761007b565b80631f79a1e91461008057806345e0523f146100bd57806349ce8997146100e85780638bca6d1614610125575b600080fd5b34801561008c57600080fd5b506100a760048036038101906100a29190610b6c565b6101f0565b6040516100b49190610bb4565b60405180910390f35b3480156100c957600080fd5b506100d2610210565b6040516100df9190610bde565b60405180910390f35b3480156100f457600080fd5b5061010f600480360381019061010a9190610b6c565b610216565b60405161011c9190610bb4565b60405180910390f35b34801561013157600080fd5b5061013a610236565b6040516101479190610bde565b60405180910390f35b61016a60048036038101906101659190610b6c565b61023c565b005b34801561017857600080fd5b506101816106a5565b60405161018e9190610c15565b60405180910390f35b3480156101a357600080fd5b506101be60048036038101906101b99190610b6c565b6106b8565b6040516101cb9190610bb4565b60405180910390f35b6101ee60048036038101906101e99190610e28565b6106d8565b005b60076020528060005260406000206000915054906101000a900460ff1681565b60045481565b60086020528060005260406000206000915054906101000a900460ff1681565b60035481565b610244610a66565b6003543414610288576040517f08c379a000000000000000000000000000000000000000000000000000000000815260040161027f90610eee565b60405180910390fd5b6008600082815260200190815260200160002060009054906101000a900460ff16156102e9576040517f08c379a00000000000000000000000000000000000000000000000000000000081526004016102e090610f5a565b60405180910390fd5b600260149054906101000a900460ff16600261030591906110dc565b60045410610348576040517f08c379a000000000000000000000000000000000000000000000000000000000815260040161033f90611173565b60405180910390fd5b6000610352610abf565b61035a610ae2565b600060045490506000859050600080610371610b05565b60005b600260149054906101000a900460ff1660ff168160ff1610156105e1578460066000600260149054906101000a900460ff1660ff1660ff1681526020019081526020016000208190555060006002876103cd91906111c2565b036104565784935060098160ff16600a81106103ec576103eb6111f3565b5b0154925060098160ff16600a8110610407576104066111f3565b5b0154888260ff16600a811061041f5761041e6111f3565b5b6020020181815250506000878260ff16600a81106104405761043f6111f3565b5b602002019060ff16908160ff16815250506104d8565b600660008260ff1660ff168152602001908152602001600020549350849250600660008260ff1660ff16815260200190815260200160002054888260ff16600a81106104a5576104a46111f3565b5b6020020181815250506001878260ff16600a81106104c6576104c56111f3565b5b602002019060ff16908160ff16815250505b83826000600281106104ed576104ec6111f3565b5b602002018181525050828260016002811061050b5761050a6111f3565b5b6020020181815250506000600260009054906101000a900473ffffffffffffffffffffffffffffffffffffffff1673ffffffffffffffffffffffffffffffffffffffff1663d622e5a4620249f0858e6040518463ffffffff1660e01b81526004016105779291906112cd565b6020604051808303818786fa158015610594573d6000803e3d6000fd5b50505050506040513d601f19601f820116820180604052508101906105b9919061130b565b90508095506002876105cb9190611338565b96505080806105d990611369565b915050610374565b508397506001600560008a815260200190815260200160002060006101000a81548160ff0219169083151502179055506001600460008282546106249190611392565b925050819055506001600860008b815260200190815260200160002060006101000a81548160ff0219169083151502179055507fe6ab8667cb740d6c65a4ad321c031eb42f6c5085d5753238d1b2e1e370c1348388888860405161068a939291906114f5565b60405180910390a150505050505050506106a2610ab5565b50565b600260149054906101000a900460ff1681565b60056020528060005260406000206000915054906101000a900460ff1681565b6106e0610a66565b6000816000600281106106f6576106f56111f3565b5b60200201519050600082600160028110610713576107126111f3565b5b602002015190506007600082815260200190815260200160002060009054906101000a900460ff161561077b576040517f08c379a00000000000000000000000000000000000000000000000000000000081526004016107729061157a565b60405180910390fd5b6005600083815260200190815260200160002060009054906101000a900460ff166107db576040517f08c379a00000000000000000000000000000000000000000000000000000000081526004016107d2906115e6565b60405180910390fd5b60003373ffffffffffffffffffffffffffffffffffffffff1690506000600160009054906101000a900473ffffffffffffffffffffffffffffffffffffffff1673ffffffffffffffffffffffffffffffffffffffff168888886040518060600160405280898152602001888152602001878152506040516024016108629493929190611788565b6040516020818303038152906040526311479fea60e01b6020820180517bffffffffffffffffffffffffffffffffffffffffffffffffffffffff83818316178352505050506040516108b49190611840565b6000604051808303816000865af19150503d80600081146108f1576040519150601f19603f3d011682016040523d82523d6000602084013e6108f6565b606091505b505090508061093a576040517f08c379a0000000000000000000000000000000000000000000000000000000008152600401610931906118a3565b60405180910390fd5b60016007600085815260200190815260200160002060006101000a81548160ff021916908315150217905550600033905060008173ffffffffffffffffffffffffffffffffffffffff16600354604051610993906118e9565b60006040518083038185875af1925050503d80600081146109d0576040519150601f19603f3d011682016040523d82523d6000602084013e6109d5565b606091505b5050905080610a19576040517f08c379a0000000000000000000000000000000000000000000000000000000008152600401610a109061194a565b60405180910390fd5b7f7fcf532c15f0a6db0bd6d0e038bea71d30d808c7d98cb3bf7268a95bf5081b653386604051610a4a9291906119ab565b60405180910390a1505050505050610a60610ab5565b50505050565b600260005403610aab576040517f08c379a0000000000000000000000000000000000000000000000000000000008152600401610aa290611a20565b60405180910390fd5b6002600081905550565b6001600081905550565b604051806101400160405280600a90602082028036833780820191505090505090565b604051806101400160405280600a90602082028036833780820191505090505090565b6040518060400160405280600290602082028036833780820191505090505090565b6000604051905090565b600080fd5b6000819050919050565b610b4981610b36565b8114610b5457600080fd5b50565b600081359050610b6681610b40565b92915050565b600060208284031215610b8257610b81610b31565b5b6000610b9084828501610b57565b91505092915050565b60008115159050919050565b610bae81610b99565b82525050565b6000602082019050610bc96000830184610ba5565b92915050565b610bd881610b36565b82525050565b6000602082019050610bf36000830184610bcf565b92915050565b600060ff82169050919050565b610c0f81610bf9565b82525050565b6000602082019050610c2a6000830184610c06565b92915050565b600080fd5b6000601f19601f8301169050919050565b7f4e487b7100000000000000000000000000000000000000000000000000000000600052604160045260246000fd5b610c7e82610c35565b810181811067ffffffffffffffff82111715610c9d57610c9c610c46565b5b80604052505050565b6000610cb0610b27565b9050610cbc8282610c75565b919050565b600067ffffffffffffffff821115610cdc57610cdb610c46565b5b602082029050919050565b600080fd5b6000610cff610cfa84610cc1565b610ca6565b90508060208402830185811115610d1957610d18610ce7565b5b835b81811015610d425780610d2e8882610b57565b845260208401935050602081019050610d1b565b5050509392505050565b600082601f830112610d6157610d60610c30565b5b6002610d6e848285610cec565b91505092915050565b600067ffffffffffffffff821115610d9257610d91610c46565b5b602082029050919050565b6000610db0610dab84610d77565b610ca6565b90508060408402830185811115610dca57610dc9610ce7565b5b835b81811015610df35780610ddf8882610d4c565b845260208401935050604081019050610dcc565b5050509392505050565b600082601f830112610e1257610e11610c30565b5b6002610e1f848285610d9d565b91505092915050565b6000806000806101408587031215610e4357610e42610b31565b5b6000610e5187828801610d4c565b9450506040610e6287828801610dfd565b93505060c0610e7387828801610d4c565b925050610100610e8587828801610d4c565b91505092959194509250565b600082825260208201905092915050565b7f696e636f72726563742d616d6f756e7400000000000000000000000000000000600082015250565b6000610ed8601083610e91565b9150610ee382610ea2565b602082019050919050565b60006020820190508181036000830152610f0781610ecb565b9050919050565b7f6578697374696e672d636f6d6d69746d656e7400000000000000000000000000600082015250565b6000610f44601383610e91565b9150610f4f82610f0e565b602082019050919050565b60006020820190508181036000830152610f7381610f37565b9050919050565b7f4e487b7100000000000000000000000000000000000000000000000000000000600052601160045260246000fd5b60008160011c9050919050565b6000808291508390505b600185111561100057808604811115610fdc57610fdb610f7a565b5b6001851615610feb5780820291505b8081029050610ff985610fa9565b9450610fc0565b94509492505050565b60008261101957600190506110d5565b8161102757600090506110d5565b816001811461103d576002811461104757611076565b60019150506110d5565b60ff84111561105957611058610f7a565b5b8360020a9150848211156110705761106f610f7a565b5b506110d5565b5060208310610133831016604e8410600b84101617156110ab5782820a9050838111156110a6576110a5610f7a565b5b6110d5565b6110b88484846001610fb6565b925090508184048111156110cf576110ce610f7a565b5b81810290505b9392505050565b60006110e782610b36565b91506110f283610bf9565b925061111f7fffffffffffffffffffffffffffffffffffffffffffffffffffffffffffffffff8484611009565b905092915050565b7f747265652d66756c6c0000000000000000000000000000000000000000000000600082015250565b600061115d600983610e91565b915061116882611127565b602082019050919050565b6000602082019050818103600083015261118c81611150565b9050919050565b7f4e487b7100000000000000000000000000000000000000000000000000000000600052601260045260246000fd5b60006111cd82610b36565b91506111d883610b36565b9250826111e8576111e7611193565b5b828206905092915050565b7f4e487b7100000000000000000000000000000000000000000000000000000000600052603260045260246000fd5b600060029050919050565b600081905092915050565b6000819050919050565b61124b81610b36565b82525050565b600061125d8383611242565b60208301905092915050565b6000602082019050919050565b61127f81611222565b611289818461122d565b925061129482611238565b8060005b838110156112c55781516112ac8782611251565b96506112b783611269565b925050600181019050611298565b505050505050565b60006060820190506112e26000830185611276565b6112ef6040830184610bcf565b9392505050565b60008151905061130581610b40565b92915050565b60006020828403121561132157611320610b31565b5b600061132f848285016112f6565b91505092915050565b600061134382610b36565b915061134e83610b36565b92508261135e5761135d611193565b5b828204905092915050565b600061137482610bf9565b915060ff820361138757611386610f7a565b5b600182019050919050565b600061139d82610b36565b91506113a883610b36565b92508282019050808211156113c0576113bf610f7a565b5b92915050565b6000600a9050919050565b600081905092915050565b6000819050919050565b6000602082019050919050565b6113fc816113c6565b61140681846113d1565b9250611411826113dc565b8060005b838110156114425781516114298782611251565b9650611434836113e6565b925050600181019050611415565b505050505050565b6000600a9050919050565b600081905092915050565b6000819050919050565b61147381610bf9565b82525050565b6000611485838361146a565b60208301905092915050565b6000602082019050919050565b6114a78161144a565b6114b18184611455565b92506114bc82611460565b8060005b838110156114ed5781516114d48782611479565b96506114df83611491565b9250506001810190506114c0565b505050505050565b60006102a08201905061150b6000830186610bcf565b61151860208301856113f3565b61152661016083018461149e565b949350505050565b7f616c72656164792d7370656e7400000000000000000000000000000000000000600082015250565b6000611564600d83610e91565b915061156f8261152e565b602082019050919050565b6000602082019050818103600083015261159381611557565b9050919050565b7f6e6f742d726f6f74000000000000000000000000000000000000000000000000600082015250565b60006115d0600883610e91565b91506115db8261159a565b602082019050919050565b600060208201905081810360008301526115ff816115c3565b9050919050565b600060029050919050565b600081905092915050565b6000819050919050565b600081905092915050565b61163a81611222565b6116448184611626565b925061164f82611238565b8060005b838110156116805781516116678782611251565b965061167283611269565b925050600181019050611653565b505050505050565b60006116948383611631565b60408301905092915050565b6000602082019050919050565b6116b681611606565b6116c08184611611565b92506116cb8261161c565b8060005b838110156116fc5781516116e38782611688565b96506116ee836116a0565b9250506001810190506116cf565b505050505050565b600060039050919050565b600081905092915050565b6000819050919050565b6000602082019050919050565b61173a81611704565b611744818461170f565b925061174f8261171a565b8060005b838110156117805781516117678782611251565b965061177283611724565b925050600181019050611753565b505050505050565b60006101608201905061179e6000830187611276565b6117ab60408301866116ad565b6117b860c0830185611276565b6117c6610100830184611731565b95945050505050565b600081519050919050565b600081905092915050565b60005b838110156118035780820151818401526020810190506117e8565b60008484015250505050565b600061181a826117cf565b61182481856117da565b93506118348185602086016117e5565b80840191505092915050565b600061184c828461180f565b915081905092915050565b7f696e76616c69642d70726f6f6600000000000000000000000000000000000000600082015250565b600061188d600d83610e91565b915061189882611857565b602082019050919050565b600060208201905081810360008301526118bc81611880565b9050919050565b50565b60006118d36000836117da565b91506118de826118c3565b600082019050919050565b60006118f4826118c6565b9150819050919050565b7f7061796d656e742d6661696c6564000000000000000000000000000000000000600082015250565b6000611934600e83610e91565b915061193f826118fe565b602082019050919050565b6000602082019050818103600083015261196381611927565b9050919050565b600073ffffffffffffffffffffffffffffffffffffffff82169050919050565b60006119958261196a565b9050919050565b6119a58161198a565b82525050565b60006040820190506119c0600083018561199c565b6119cd6020830184610bcf565b9392505050565b7f5265656e7472616e637947756172643a207265656e7472616e742063616c6c00600082015250565b6000611a0a601f83610e91565b9150611a15826119d4565b602082019050919050565b60006020820190508181036000830152611a39816119fd565b905091905056fea2646970667358221220377cbfd0aca8156fa3367499679e70beffe936e0616e5319dc53bbab028fc05564736f6c63430008110033",
  "linkReferences": {},
  "deployedLinkReferences": {}
}